:1000000000308A00602900000A108A100A11820755
:1000100028340C34013406340A108A100A1182077D
:100020000C3441344434433420344B344F344E3454
:10003000543452344F344C3400340A108A100A11AC
:1000400082076134643463343D3425346C34753450
:1000500000342E3084008313000803193D2801303A
:10006000F800F701F70B3228F80B31284A30F70077
:10007000F70B38283B28800B2F280034340EF0393A
:10008000F7000F30060577048600000006144828A4
:10009000061000348610F030831686008312061591
:1000A0000000061400000608060E0F39B400061002
:1000B0000000061400000608060E0F39B3000610F3
:1000C0000030831686008312340EF700F030F705F7
:1000D00077083304F8007808B300B31B4B28311CB1
:1000E0008610311886140000061100000610320E2A
:1000F000B3000F30B3053308B4003E2032080F3987
:10010000B300B4003E200034003083168600831212
:100110008610061106100F30AE0029200130A30012
:100120002308033C031C9C280330B4003E20053008
:10013000AE002920A30A90280230B4003E20A3017B
:100140002308033C031CAD2823080420A400B101AC
:100150002408B2004A20A30AA0288A110A127F2983
:1001600001302F02FC3E0318C328043ECB28803008
:10017000B000C328C030B000C3289430B000C328FA
:10018000D430B000C32801302E02B007B1013008CE
:10019000B2004A2000340A108A100A118207B728D8
:1001A000BA28BD28C0282D080C3A0319DE28063AC3
:1001B0000319E828023A0319EF28F428B1010130A5
:1001C000B2004A200130A0000230AE002920FA28F7
:1001D000A00A0130AE002008AF00B020FA28B1011B
:1001E0001030B2004A20FA280130B1002D08B200C8
:1001F0004A20FA280034AC010408AB002C10831B01
:100200002C14250EF038A700A707E23EA800323EC6
:10021000AA0025080F39A807A807AA07E93EA900E0
:10022000A907A907240E0F39A907AA07A90DAA0D26
:10023000AA09AA0D24080F39AA07A70D0730A6009E
:100240000A30AA07A903031C2129A907A803031C34
:100250002529A807A703031C2929A707A603031C10
:100260002D2926308400831307302B052B13840798
:100270002A30040203192B170008F700031D482930
:100280002B1B48292B1A5A29AB19482920304B29F6
:10029000AB152B123030F707A5010408A400251078
:1002A000831B25147708AD00D32024088400831312
:1002B00025188317840A2B1F38298A110A12C52989
:1002C000840183131F30830583161F149F141F1589
:1002D0009F118312A101A2010030831686008601BE
:1002E000831286011F139F1383169F1383121F14FB
:1002F00083161F109F101F119F1183128428143022
:10030000AE0029200130AE00AF00B020A3012308C9
:100310000C20A30AF700AD00D3200C302302031DEC
:1003200087291430AE002920A201A1010030F80075
:100330001F08C73978049F001030F700F70B9E297B
:1003400000001F151F19A2291E08A201A1000230DA
:10035000A300FA30AE002920A30BA9290130AE007A
:100360000230AF00B020A30123081D20A30AF7002C
:10037000AD00D32004302302031DB42910308400C3
:0E0380002208A5002108A400FB289429630090
:02400E00713F00
:00000001FF
;PIC16F877
