:1000000000308A003C2900000A108A100A11820779
:1000100028340C34013406340A108A100A1182077D
:100020000C3400340A108A100A1182074D3445340A
:100030005234483441344234413400342530840051
:1000400083130008031932280130F800F701F70B79
:100050002728F80B26284A30F700F70B2D283028E0
:10006000800B242800342B0EF039F7000F300605E2
:1000700077048600000006143D2806100034861020
:10008000F030831686008312061500000614000067
:100090000608060E0F39AB0006100000061400001B
:1000A0000608060E0F39AA000610003083168600D7
:1000B00083122B0EF700F030F70577082A04F800BA
:1000C0007808AA00AA1B4028281C86102818861425
:1000D0000000061100000610290EAA000F30AA0524
:1000E0002A08AB00332029080F39AA00AB003320BF
:1000F0000034003083168600831286100611061025
:100100000F30A5001E200130A2002208033C031C72
:1001100091280330AB0033200530A5001E20A20A31
:1001200085280230AB003320A2012208033C031CC7
:10013000A22822080420A300A8012308A9003F2028
:10014000A20A95288A110A124A2901302602FC3E89
:100150000318B828043EC0288030A700B828C03053
:10016000A700B8289430A700B828D430A700B82832
:1001700001302502A707A8012708A9003F20003465
:100180000A108A100A118207AC28AF28B228B528B5
:1001900024080C3A0319D328063A0319DD28023A39
:1001A0000319E428E928A8010130A9003F20013003
:1001B000A0000230A5001E20EF28A00A0130A500F3
:1001C0002008A600A520EF28A8011030A9003F2094
:1001D000EF280130A8002408A9003F20EF280034B0
:1001E0002508F80124020318F8282408F700042938
:1001F000F7010830A600A40DF70D250877020318B3
:10020000F700F80DA60BFB28003478082208A4009C
:100210006430A500F0207708A20078083030031D74
:100220001829A31C1F29A3191F29231A20301B29B1
:10023000A31123122314F8077808A400C820220869
:10024000A4000A30A500F0207708A200780830301A
:10025000031D3029A3193429231C3429231A2030E3
:10026000F8077808A400C8203030A2072208A400AC
:10027000C8208A110A126F29840183131F30830555
:1002800083161F149F141F159F1164308312A5003D
:100290001E2079286430A5001E20A20122080C200F
:1002A000003803195729A20AA400C8204E29A20128
:1002B00022081220003803196129A20AA400C820CC
:1002C0005829A101210F652978290130A5000230A4
:1002D000A600A5202108A2001330A30005290230A2
:1002E000A2009630A5001E20A20B7129A10A622946
:0402F000612963001D
:02400E00733FFE
:00000001FF
;PIC16F877
