:1000000000308A0019280000233084008313000880
:10001000031918280130F800F701F70B0D28F80B29
:100020000C284A30F700F70B13281628800B0A28F3
:100030000034840183131F30830583161F149F141B
:100040001F159F1101308312A1002108803C031C61
:100050006E28831686018312210886000230A200D2
:10006000FA30A3000420A20B30282108803C031D95
:100070006B2883168601FF30831286000230A200AF
:10008000FA30A3000420A20B40288030A1002108F0
:10009000003C03186B288316860183122108860012
:1000A0000230A200FA30A3000420A20B5228210B38
:1000B000682883168601FF30831286000230A20072
:1000C000FA30A3000420A20B602883162228831292
:0E00D0000310A10C47280310A10D2528630082
:02400E00713F00
:00000001FF
;PIC16F877
