:1000000000308A00002A0000FF00030E8301A100D7
:100010000A08A0008A010408A2007708A300780853
:10002000A4007908A5007A08A6007B08A70083131E
:1000300083128C308400801E1F288C1A32282208DC
:1000400084002308F7002408F8002508F900260892
:10005000FA002708FB0020088A00210E8300FF0E0B
:100060007F0E09008A110A1288290A108A100A11C3
:10007000820728340C34013406340A108A100A111D
:1000800082070A340D34793461347A346434FD34AF
:10009000F034FD346E34FD347A3420346D346534FC
:1000A000743469346E343E342034253473340A3465
:1000B00000340A108A100A1182070A340D346B3496
:1000C0006C346134763479346534643465346E3438
:1000D00020346D346534743469346E3420346734BC
:1000E00069347234203476346534203465346E34A7
:1000F000743465347234653420346234613473345A
:100100003E3400340A108A100A1182070A340D3472
:100110006B346C34613476347934653464346534EA
:100120006E34203467346934723469346C34653425
:100130006E342034623469346C346734693420346A
:100140006C3463346434203464346534203467346C
:10015000F6347234FC346E346534633465346B3495
:100160000A340A340034F0308316860083120615F0
:100170000000061400000608060E0F390317A00041
:10018000031306100000061400000608060E0F39BF
:1001900003179F0003130610003083168600831296
:1001A0000317200EF700F030F70577081F04F8005A
:1001B000031300340317200EF039F7000F30031338
:1001C00006057704860000000614E62806100034B1
:1001D0008610B320780803179F009F1FF128031390
:1001E000E9281D18F6280313861003171D1CFB2889
:1001F00003138614031700000313061100000610F2
:1002000003171E0E9F000F309F051F08A000031349
:10021000DA2003171E080F399F00A0000313DA200D
:1002200000341A308400831700080319252901308F
:10023000F800F701F70B1A29F80B19294A30F700D3
:10024000F70B20292329800B1729003401300317CD
:100250001B02FC3E03184029043E03134B29803047
:1002600003179C004029C03003179C00402994309C
:1002700003179C004029D43003179C004029031722
:1002800001301A029C079D011C089E000313E82000
:100290008A110A1287290A148A100A1182072F2943
:1002A000332937293B29031719080C3A031303197B
:1002B0006029063A03196E29023A031978297F2921
:1002C00003179D0101309E000313E8200130A900AF
:1002D000023003179A00031311218729A90A01305C
:1002E00003179A000313290803179B0003132629F9
:1002F00003179D0110309E000313E8208729013069
:1003000003179D0019089E000313E8208729003475
:1003100083168C128312AA122A088316870083126E
:100320008716A030840083138403840A8C1E9629C8
:100330001A0880000D300002031D95298001031763
:100340009701170803133D200317970AF7000313BB
:100350000C1EA8299900143003171702031DA129A8
:10036000A03084008313003000040319BF29000863
:1003700003130C1EB9299900840A0317B3290A3004
:1003800003130C1EC12999000C30031799000313A5
:100390005321A03084008313003000040319E429A2
:1003A00003179801040897001810831B18140008FD
:1003B0009900031353210317170884008313181897
:1003C0008317840A0313CC29AA122A0883168700EC
:1003D0008312871203179701170803135920031775
:1003E000970AF70003130C1EF32999002430031712
:1003F0001702031DEC2903138C128A110A121F28FD
:10040000840183131F308305193083169900A630A9
:10041000980090308312980083161F149F141F15A4
:100420009F11FF308312AA00AA122A0883168700A0
:1004300083128712003083168600831286100611FD
:100440000610A8018B1BA8178B130F3003179A00F7
:1004500003131121A81B8B170130031790001008FC
:10046000033C031C4D2A0313A8018B1BA8178B13F5
:1004700003300317A0000313DA20A81B8B17A80171
:100480008B1BA8178B13053003179A000313112138
:10049000A81B8B170317900A2F2A0313A8018B1B85
:1004A000A8178B1302300317A0000313DA20A81B30
:1004B0008B17031790011008033C031C742A1008C3
:1004C00003133520031791000313A8018B1BA817F2
:1004D0008B1303179D0111089E000313E820A81B2E
:1004E0008B170317900A5B2A0A3090002A300313F7
:1004F0000C1E782A99000317900B762A7330031389
:100500000C1E802A99006C300C1E842A99006D30D4
:100510000C1E882A99000730031791002A30031314
:100520000C1E902A99000317910B8E2A9001100837
:10053000031382200317900AF70003130C1E9E2A50
:1005400099002C3003171002031D972A9001100800
:10055000031359200317900AF70003130C1EAE2A49
:100560009900243003171002031DA72AC03003137B
:0A0570008B0483168C16BA2A630070
:02400E00713F00
:00000001FF
;PIC16F877
