:1000000000308A0018280000233084008313000881
:10001000031917280230F800F701F70B0D28F80B29
:100020000C289730F700F70B1328800B0A280034B0
:10003000840183131F30830583161F149F141F151B
:100040009F11FF308312A0000030F80006389200A4
:100050007C308316920083122011200883168700BB
:10006000831207110C30970083161F109F141F1561
:100070009F1583121F179F1783169F1783121F1434
:100080000030F8001F08C73978049F0095011F153C
:100090001F19482883161E088312A1001E08A200FB
:1000A0001430A30004202208F9002108F800F90CFC
:1000B000F80CF90CF80CF90C78089500F90C790C8F
:1000C0003039F7001708CF39770497003230A30092
:0600D00004204728630034
:02400E00713F00
:00000001FF
;PIC16F877
