:1000000000308A00B7290000FF00030E8301A10021
:100010000A08A0008A010408A2007708A300780853
:10002000A4007908A5007A08A6007B08A70083131E
:1000300083128B1E1D280B193028220884002308E8
:10004000F7002408F8002508F9002608FA00270818
:10005000FB0020088A00210E8300FF0E7F0E09009E
:100060008A110A125E290A108A100A11820728349E
:100070000C34013406340A108A100A1182077334D2
:1000800061347934613463343D342534303433346D
:10009000753400340A108A100A1182070C340034B7
:1000A0000A108A100A118207743469346D34653479
:1000B00072343034203464346534673465347234D7
:1000C00000340A108A100A118207733461347934BB
:1000D000613463343D340034F0308316860083127B
:1000E00006150000061400000608060E0F39C200AF
:1000F00006100000061400000608060E0F39C100A5
:1001000006100030831686008312420EF700F0308E
:10011000F70577084104F8000034420EF039F70083
:100120000F30060577048600000006149728061095
:10013000003486106C207808C100C11B9A283F1C2F
:1001400086103F1886140000061100000610400EAD
:10015000C1000F30C1054108C2008D2040080F3991
:10016000C100C2008D20003401303D02FC3E031866
:10017000C728043ECF288030BE00C728C030BE004C
:10018000C7289430BE00C728D430BE00C72801302D
:100190003C02BE07BF013E08C000992000340A108F
:1001A0008A100A118207BB28BE28C128C4283C3007
:1001B0008400831300080319EB280130F800F701CD
:1001C000F70BE028F80BDF284A30F700F70BE6289A
:1001D000E928800BDD2800343B080C3A0319F72886
:1001E000063A03190129023A031908290D29BF010A
:1001F0000130C00099200130A9000230BC00D72096
:100200001329A90A0130BC002908BD00B420132914
:10021000BF011030C000992013290130BF003B08F6
:10022000C0009920132900343C08F8013B02031850
:100230001C293B08F7002829F7010830BD00BB0D39
:10024000F70D3C0877020318F700F80DBD0B1F29C6
:10025000003478083908BB006430BC0014217708EA
:10026000B90078083030031D3C29BA1C4329BA195B
:1002700043293A1A20303F29BA113A123A14F807A2
:100280007808BB00EC203908BB000A30BC00142100
:100290007708B90078083030031D5429BA19582955
:1002A0003A1C58293A1A2030F8077808BB00EC208D
:1002B0003030B9073908BB00EC200034FF30810032
:1002C000AA0A2A080A3C031D9B290B138B138B1BBC
:1002D00066298B12AA010130BC000230BD00B42097
:1002E000B80138083B20B80AF700BB00EC20063004
:1002F0003802031D71292A08B9000330BA002921E8
:100300001430BC00D7202D102D08831687008312CF
:1003100007140830B800FA30BC00D720B80B8B297E
:100320002D102D088316870083120710C0308B0410
:100330008B16AA01B3290130BC000230BD00B420E5
:10034000B80138083B20B80AF700BB00EC200630A3
:100350003802031DA1292A08B9000330BA00292157
:100360001430BC00D7200B118A110A121D288401F9
:1003700083131F30830583161F149F141F159F11AD
:100380008312AA01AB01FF30AD0000308316860056
:1003900086018312860183160108C7393838810027
:1003A000FF3083128100C0308B048B16003083161F
:1003B00086008312861006110610A8018B1BA81751
:1003C0008B130F30BC00D720A81B8B170130AE0059
:1003D0002E08033C031C002AA8018B1BA8178B13B3
:1003E0000330C2008D20A81B8B17A8018B1BA817F8
:1003F0008B130530BC00D720A81B8B17AE0AE82949
:10040000A8018B1BA8178B130230C2008D20A81BDC
:100410008B17AE012E08033C031C1D2A2E08332027
:10042000AF00A8018B1BA8178B13BF012F08C000BA
:100430009920A81B8B17AE0A0A2AA8018B1BA817A4
:100440008B130A30BC00D720A81B8B17AE012E08D7
:100450004A2000380319362AAE0AA8018B1BA817B8
:100460008B13BB00EC20A81B8B17272AA8018B1B22
:10047000A8178B130A30BC00D720A81B8B17A80124
:100480008B1BA8178B130130BC00BD00B420A81B28
:100490008B17AE012E08502000380319592AAE0AD6
:1004A000A8018B1BA8178B13BB00EC20A81B8B1774
:1004B0004A2AA8018B1BA8178B130130BC000230FD
:1004C000BD00B420A81B8B17AE012E086120003898
:1004D0000319742AAE0AA8018B1BA8178B13BB0043
:0C04E000EC20A81B8B17652A742A63000F
:02400E00713F00
:00000001FF
;PIC16F877
