:1000000000308A00272800000A108A100A1182078F
:10001000403479342434303419341234023478348E
:100020000034103425308400831300080319262877
:100030000130F800F701F70B1B28F80B1A284A309B
:10004000F700F70B21282428800B1828003484019E
:1000500083131F30830583161F149F141F159F11D0
:100060008312A101A201FF30A300A401831686011F
:10007000831286018316880183128801A401240853
:10008000313C031C6F288316081083120810831656
:1000900088108312881421080420A5008316860185
:1000A0008312250886000530A500122083168810CB
:1000B0008312881083160810831208142208042063
:1000C000A500831686018312250886000530A50049
:1000D00012208316081083120810A40A3F287028E3
:1000E000831605148312051C85283230A5001220C2
:1000F000A10A21080A3C031D7F28A101A20A2208A7
:100100000A3C031D8428A2013E288316851483120D
:10011000851CA9283230A5001220A10803199228B5
:10012000003093280130A500A20803199928003057
:100130009A28013025050319A1280A30A1000930A9
:10014000A200A108031DA7280A30A100A203A10351
:100150003E28831605158312051DB4283230A500EC
:0C0160001220A101A2013E283E286300ED
:02400E00713F00
:00000001FF
;PIC16F877
