:1000000000308A00252800000A108A100A11820791
:10001000013403340234063404340C340834093413
:100020002230840083130008031924280130F800CB
:10003000F701F70B1928F80B18284A30F700F70BCF
:100040001F282228800B16280034840183131F30B8
:10005000830583161F149F141F159F118312A0017F
:10006000FF30A1000030831687008312A100A10099
:100070008316870183128701831606148312061CD8
:1000800059286430A2001020A00A20080420F8009B
:1000900020080420A2000030A100831687018312EB
:1000A000220887006430A20010202008073C0319B2
:1000B000A001831686148312861C74286430A20063
:1000C0001020A00320080420A2000030A100831605
:1000D00087018312220887006430A2001020A00844
:0C00E000031D74280730A0003C286300BA
:02400E00713F00
:00000001FF
;PIC16F877
