:1000000000308A00272800000A108A100A1182078F
:10001000403479342434303419341234023478348E
:100020000034103424308400831300080319262878
:100030000130F800F701F70B1B28F80B1A284A309B
:10004000F700F70B21282428800B1828003484019E
:1000500083131F30830583161F149F141F159F11D0
:100060008312A101A301003083168600860183124A
:100070008601A20122080A3C031C7528A10121085F
:10008000313C031C73288316081083120810831652
:1000900088108312881422080420A4008316860185
:1000A0008312240886000530A400122083168810CD
:1000B0008312881083160810831208142308042062
:1000C000A400831686018312240886000530A4004C
:1000D0001220831608108312081022080A3C031904
:1000E0007528A10A3F28A20A3A28A30A83160810F5
:1000F0008312081423080420A400831686018312A7
:1001000024088600831608108312081023080A3C6E
:0A011000031D8B28A30139286300AA
:02400E00713F00
:00000001FF
;PIC16F877
