:1000000000308A0019280000233084008313000880
:10001000031918280130F800F701F70B0D28F80B29
:100020000C284A30F700F70B13281628800B0A28F3
:100030000034840183131F30830583161F149F141B
:100040001F159F1107309C00FF308312A000003065
:10005000831687008312A0000030A000831687015A
:10006000831287010230A200FA30A3000420A20B01
:100070003428A10101302107A2000030A00083161E
:1000800087018312220887000230A200FA30A30001
:100090000420A20B46282108FE3C03195428031013
:1000A000210D023AA1003A288030A100013021023E
:1000B000A2000030A0008316870183122208870067
:1000C0000230A200FA30A3000420A20B6228A1088B
:0C00D00003192C280310A10C5628630013
:02400E00713F00
:00000001FF
;PIC16F877A
