:1000000000308A00FE2900000A108A100A118207B7
:1000100028340C34013406340A108A100A1182077D
:100020000C3400340A108A100A1182074D3445340A
:1000300052344834413442344134203400340A10BC
:100040008A100A11820753345434413452345434E0
:100050004134203442344134533449344E34003432
:100060000A108A100A1182074D344F3454344F3429
:1000700052342034433441344C34493453344934B9
:1000800059344F34523400340A108A100A1182074E
:10009000503457344D343D34253430343334753492
:1000A00000340A108A100A118207643465347634E9
:1000B000693472343D342534303435346C3475341D
:1000C00064342F34643400343330840083130008E4
:1000D000031978280130F800F701F70B6D28F80BA9
:1000E0006C284A30F700F70B73287628800B6A28B3
:1000F0000034390EF039F7000F300605770486001A
:10010000000006148328061000348610F030831691
:100110008600831206150000061400000608060E6D
:100120000F39B90006100000061400000608060E7C
:100130000F39B80006100030831686008312390E7E
:10014000F700F030F70577083804F8007808B800B1
:10015000B81B8628361C8610361886140000061137
:1001600000000610370EB8000F30B8053808B90087
:10017000792037080F39B800B900792000340030F1
:100180008316860083128610061106100F30B30006
:1001900064200130A8002808033C031CD728033042
:1001A000B90079200530B3006420A80ACB280230BA
:1001B000B9007920A8012808033C031CE828280876
:1001C0000420A900B6012908B7008520A80ADB2869
:1001D0008A110A12372A01303402FC3E0318FE2825
:1001E000043E06298030B500FE28C030B500FE2848
:1001F0009430B500FE28D430B500FE28013033021B
:10020000B507B6013508B700852000340A148A10F6
:100210000A118207F228F528F828FB2832080C3A40
:1002200003191929063A03192329023A03192A291D
:100230002F29B6010130B70085200130A00002301F
:10024000B30064203529A00A0130B3002008B400AF
:10025000EB203529B6011030B70085203529013053
:10026000B6003208B7008520352900342C08F80183
:100270002B0203183E292B08F7004A29F701083002
:10028000AD00AB0DF70D2C0877020318F700F80D41
:10029000AD0B4129003478082908AB006430AC006C
:1002A00036217708A90078083030031D5E29AA1C82
:1002B0006529AA1965292A1A20306129AA112A124A
:1002C0002A14F8077808B2000E212908AB000A307A
:1002D000AC0036217708A90078083030031D762954
:1002E000AA197A292A1C7A292A1A2030F8077808AC
:1002F000B2000E213030A9072908B2000E218A1160
:100300000A12B22A1030AC00F701FA01A90CA80CAD
:10031000031C90292A08F7070318FA0A2B08FA0782
:10032000FA0CF70CF90CF80CAC0B86298A110A129E
:10033000DF2AB1010408B0003110831B31142A0EEA
:10034000F038AC00AC07E23EAD00323EAF002A0808
:100350000F39AD07AD07AF07E93EAE00AE07AE07F8
:10036000290E0F39AE07AF07AE0DAF0DAF09AF0DB8
:1003700029080F39AF07AC0D0730AB000A30AF07C3
:10038000AE03031CBF29AE07AD03031CC329AD0791
:10039000AC03031CC729AC07AB03031CCB292B30D0
:1003A0008400831307303005301384072F30040294
:1003B000031930170008F700031DE629301BE62952
:1003C000301AF829B019E6292030E929B015301281
:1003D0003030F707AA010408A9002A10831B2A1449
:1003E0007708B2000E212908840083132A18831786
:1003F000840A301FD6298A110A12FA2A840183132B
:100400001F30830583161F149F141F159F11FF3083
:100410008312A100873090000030F8000438920069
:10042000F930831692008312211121088316870068
:10043000831207110C30970083161F109F141F158D
:100440009F1583121F179F1783169F1383121F1464
:100450000030F8001F08C73978049F001430B3003B
:10046000642095018316081083120810BF283230CB
:10047000B3006420A80128080C2000380319442A7E
:10048000A80AB2000E213B2A3230B30064200130AA
:10049000B300B400EB20A80128081220A80AF70036
:1004A000B2000E2108302802031D4C2A3230B3005E
:1004B00064200130B3000230B400EB20A80128080A
:1004C0001F20A80AF700B2000E210C302802031DDD
:1004D0005F2A831688178312881F722A3230B3006E
:1004E0006420692AA80128080C20003803197C2AF6
:1004F000A80AB2000E21732AA8012808302000386B
:100500000319862AA80AB2000E217D2A8316081034
:1005100083120814A80128080C2000380319942A13
:10052000A80AB2000E218B2A1F151F19952A1E0832
:10053000A7001E30B3006420270895000130B300E7
:10054000B400EB20A80128084420A80AF700B20054
:100550000E2104302802031DA32A2708A900033016
:10056000AA004B291E30B3006420A301A201A601FA
:100570002608093C031CC72A6430B3006420831694
:1005800008178312081BC52A312AA60AB82A0F08A1
:10059000FA000E08F7000F087A02031DC72A770831
:1005A000A4007A08A5002508A3002408A2002308B7
:1005B000A9002208A800AB013C30AA0082297908D2
:1005C000A3007808A2000130B3000230B400EB2091
:1005D000A80128085120A80AF700B2000E21063011
:1005E0002802031DE92A083084002308AA002208F3
:1005F000A90099296430B2000E212F30B2000E21DB
:0A0600006430B2000E21942A63005A
:02400E00713F00
:00000001FF
;PIC16F877
