:1000000000308A00E8280000FF00030E8301A100F1
:100010000A08A0008A010408A2007708A300780853
:10002000A4007908A5007A08A6007B08A70083131E
:1000300083120B1E1D288B183028220884002308E9
:10004000F7002408F8002508F9002608FA00270818
:10005000FB0020088A00210E8300FF0E7F0E09009E
:100060008A110A1233280B12FF30831686002130C2
:10007000F700F70B392886108312861083160616B0
:100080008312061A45280130B300831686168312A0
:10009000861A4C280430B300831606178312061BF9
:1000A00053280730B300831686178312861B5A28FD
:1000B0000A30B30083168610831286148316061145
:1000C00083120611831606168312061A6928023057
:1000D000B300831686168312861A70280530B30083
:1000E000831606178312061B77280830B300831681
:1000F00086178312861FB301831606118312061515
:100100008316861183128611831606168312061A29
:100110008B280330B300831686168312861A922822
:100120000630B300831606178312061B9928093080
:10013000B300831686178312861BA0280B30B300EA
:1001400083168611831286150130B400B701370F6C
:10015000AA28B1285430F700F70BAC28AF28B70A0B
:10016000A728B20A2830320784008313330880009E
:10017000FF308316860083128B108A110A121D2805
:1001800039308400831300080319D4280130F800A3
:10019000F701F70BC928F80BC8284A30F700F70B0E
:1001A000CF28D228800BC62800340B128316881063
:1001B000831288140430B800FA30B900C020B80B9C
:1001C000DC288316881083128810B2010B160034C5
:1001D000840183131F30830583161F149F141F157A
:1001E0009F1107309C008312B20183160113C030A7
:1001F00083128B040B1603178D0183168C130C14BA
:1002000083120C0803192A290313B2013208043C93
:10021000031C2929320803178D0003133208031722
:100220008C0083168C130C15831203130B08F70034
:100230008B138316031755308D00AA308D008C1454
:100240008C1820290C117708831203138B04B20A2F
:100250000629031701300313B2003208043C031CC3
:1002600041292D30320784008313320803178D0093
:1002700083168C130C1483120C0880000313B20A2B
:100280002D29B201B501B601FF3083168600831215
:10029000B408031948290B12831688118312881594
:1002A0009630B900C0208316881183128811320855
:1002B000053C031D822933080B3C031D82292E08AF
:1002C0002902031D82292F082A02031D82293008D2
:1002D0002B02031D822931082C02031D82290B12D7
:1002E00083160810831208141430B800FA30B900CD
:1002F000C020B80B76298316081083120810B201AB
:100300000B16382A3208053C031DA22933080A3C83
:10031000031DA2292E082902031DA2292F082A0243
:10032000031DA22930082B02031DA22931082C022B
:10033000031DA2290130B500831608118312081588
:10034000B201382A3208053C031DF32933080A3C60
:10035000031DF329350BF3290130B2003208043CA8
:10036000031CED2928303207840083130008B800ED
:10037000320803178D000313380803178C00831607
:100380008C130C15831203130B08F7008B138316C1
:10039000031755308D00AA308D008C148C18CE298F
:1003A0000C117708831203138B042D303207F800E9
:1003B000FA010318FA0A2830320784008313000870
:1003C000BA007808840083137A1883173A088000EB
:1003D0000530B900C020B20AAE2983160811831275
:1003E0000811B201382A3208053C031D252A2E08BF
:1003F0002902031D072A2F082A02031D072A300895
:100400002B02031D072A31082C020319252AD520A7
:100410003608B60A023C0318232A0B12B20132082E
:10042000313C031C1D2A8316881002308312880673
:100430006430B900C020B20A0F2A831688108312D4
:100440008810B601B2010B16382A3208053C031891
:100450002B2AD520382A3208043C031C382A3308BA
:100460000A3C0319372A33080B3C031D382AD520D0
:08047000B4010B1648296300DA
:02400E00713F00
:00000001FF
;PIC16F877A
