:1000000000308A0070290000FF00030E8301A10068
:100010000A08A0008A010408A2007708A300780853
:10002000A4007908A5007A08A6007B08A70083131E
:1000300083128B1E1D280B193028220884002308E8
:10004000F7002408F8002508F9002608FA00270818
:10005000FB0020088A00210E8300FF0E7F0E09009E
:100060008A110A121E290A108A100A1182072834DE
:100070000C34013406340A108A100A1182077334D2
:1000800061347934613463343D342534303433346D
:10009000753400340A108A100A1182070C340034B7
:1000A0000A108A100A118207743469346D34653479
:1000B00072343034203464346534673465347234D7
:1000C0000034F030831686008312061500000614F3
:1000D00000000608060E0F39C100061000000614C5
:1000E00000000608060E0F39C00006100030831607
:1000F00086008312410EF700F030F70577084004C0
:10010000F8000034410EF039F7000F30060577048F
:100110008600000006148C2806100034861061202A
:100120007808C000C01B8F283E1C86103E1886141D
:1001300000000611000006103F0EC0000F30C00581
:100140004008C10082203F080F39C000C100822052
:10015000003401303C02FC3E0318BC28043EC42895
:100160008030BD00BC28C030BD00BC289430BD002C
:10017000BC28D430BD00BC2801303B02BD07BE0105
:100180003D08BF008E2000340A108A100A11820731
:10019000B028B328B628B9283B3084008313000860
:1001A0000319E0280130F800F701F70BD528F80B08
:1001B000D4284A30F700F70BDB28DE28800BD22842
:1001C00000343A080C3A0319EC28063A0319F628C9
:1001D000023A0319FD280229BE010130BF008E201A
:1001E0000130A9000230BB00CC200829A90A013047
:1001F000BB002908BC00A9200829BE011030BF009F
:100200008E2008290130BE003A08BF008E20082940
:1002100000343B08F8013A02031811293A08F700A4
:100220001D29F7010830BC00BA0DF70D3B08770215
:100230000318F700F80DBC0B14290034FF308100BF
:10024000AA0A0130BB000230BC00A920B701370860
:100250003B20B70AF7007708BA00E12006303702E2
:10026000031D27292A08B8000330B9003808BA004E
:100270006430BB0009217708B80078083030031DCE
:100280004829B91C4F29B9194F29391A20304B294F
:10029000B91139123914F8077808BA00E120380882
:1002A000BA000A30BB0009217708B800780830305E
:1002B000031D6029B9196429391C6429391A2030B1
:1002C000F8077808BA00E1203030B8073808BA00DB
:1002D000E1201430BB00CC200B118A110A121D281A
:1002E000840183131F30830583161F149F141F1569
:1002F0009F118312AA01AB0100308316860086018C
:100300008312860183160108C73938388100FF300F
:1003100083128100C0308B048B1600308316860058
:100320008312861006110610A8018B1BA8178B13C9
:100330000F30BB00CC20A81B8B170130AD002D085F
:10034000033C031CB729A8018B1BA8178B13033090
:10035000C1008220A81B8B17A8018B1BA8178B1329
:100360000530BB00CC20A81B8B17AD0A9F29A80124
:100370008B1BA8178B130230C1008220A81B8B1780
:10038000AD012D08033C031CD4292D083320AE00F9
:10039000A8018B1BA8178B13BE012E08BF008E204F
:1003A000A81B8B17AD0AC129A8018B1BA8178B139B
:1003B0000A30BB00CC20A81B8B17AD012D084A20AA
:1003C00000380319ED29AD0AA8018B1BA8178B1360
:1003D000BA00E120A81B8B17DE29A8018B1BA817E8
:1003E0008B130A30BB00CC20A81B8B17A8018B1BDA
:1003F000A8178B130130BB00BC00A920A81B8B17CA
:10040000AD012D08502000380319102AAD0AA801AB
:100410008B1BA8178B13BA00E120A81B8B17012A8E
:04042000102A63003B
:02400E00713F00
:00000001FF
;PIC16F877
