:1000000000308A007C280000FF00030E8301A1005D
:100010000A08A0008A010408A2007708A300780853
:10002000A4007908A5007A08A6007B08A70083131E
:1000300083128B1D1D280B183028220884002308EA
:10004000F7002408F8002508F9002608FA00270818
:10005000FB0020088A00210E8300FF0E7F0E09009E
:100060008A110A12482828308400831300080319D3
:1000700047280130F800F701F70B3C28F80B3B2824
:100080004A30F700F70B42284528800B3928003406
:10009000831606168312061E54283230A800332019
:1000A0008316081083120814831686168312861E80
:1000B00060283230A80033208316881083128814F9
:1000C000831606178312061F6C283230A8003320CF
:1000D0008316081183120815831686178312861F4C
:1000E00078283230A80033208316881183128815AF
:1000F0000B108A110A121D28840183131F308305F7
:1001000083161F149F141F159F11831203178B153D
:0A011000C03003138B048B2863003A
:02400E00713F00
:00000001FF
;PIC16F877
