:1000000000308A006A280000FF00030E8301A1006F
:100010000A08A0008A010408A2007708A300780853
:10002000A4007908A5007A08A6007B08A70083131E
:1000300083120B1E1D288B183028220884002308E9
:10004000F7002408F8002508F9002608FA00270818
:10005000FB0020088A00210E8300FF0E7F0E09009E
:100060008A110A1248282B308400831300080319D0
:1000700047280C30F800F701F70B3C28F80B3B2819
:10008000F730F700F70B42284528800B3928003459
:10009000A8012808093C031C6628FF30A90000308D
:1000A000AA0083168701831229088700C830AB0095
:1000B0003320A9010030AA00831687018312290882
:1000C0008700C830AB003320A80A49288B108A115A
:1000D0000A121D28840183131F30830583161F1401
:1000E0009F141F159F11FF308312AA00831601135E
:0C00F00083120B16C0308B047C286300C8
:02400E00713F00
:00000001FF
;PIC16F877
