:1000000000308A00C92900000A108A100A118207EC
:1000100028340C34013406340A108A100A1182077D
:100020000C3442346934523420345434553453340B
:100030004134203442344134533449344E34203432
:1000400000340A108A100A1182076B34653479343F
:100050003D34253463340034243084008313000895
:10006000031940280130F800F701F70B3528F80B89
:1000700034284A30F700F70B3B283E28800B322803
:1000800000342A0EF039F7000F3006057704860099
:10009000000006144B28061000348610F03083163A
:1000A0008600831206150000061400000608060EDE
:1000B0000F39AA0006100000061400000608060EFC
:1000C0000F39A900061000308316860083122A0E0D
:1000D000F700F030F70577082904F8007808A90040
:1000E000A91B4E28271C861027188614000006110D
:1000F00000000610280EA9000F30A9052908AA0043
:10010000412028080F39A900AA00412000340030FE
:100110008316860083128610061106100F30A40085
:100120002C200130A2002208033C031C9F2803302E
:10013000AA0041200530A4002C20A20A93280230F6
:10014000AA004120A2012208033C031CB028220877
:100150000420A300A7012308A8004D20A20AA32879
:100160008A110A12D42901302502FC3E0318C62840
:10017000043ECE288030A600C628C030A600C6287F
:100180009430A600C628D430A600C6280130240228
:10019000A607A7012608A8004D2000340A108A10DF
:1001A0000A118207BA28BD28C028C32823080C3AA0
:1001B0000319E128063A0319EB28023A0319F22839
:1001C000F728A7010130A8004D200130A00002301F
:1001D000A4002C20FD28A00A0130A4002008A500BE
:1001E000B320FD28A7011030A8004D20FD280130C4
:1001F000A7002308A8004D20FD28003400308316F6
:100200008800081283120812831688128312881637
:10021000831608138312081783168813831288170E
:1002200083160814831208181B291430A4002C20EC
:100230003130F800C62983168814831288182629BD
:100240001430A4002C203230F800C629831608157B
:100250008312081931291430A4002C203330F800FF
:10026000C629831608128312081683168812831271
:1002700088128316081383120817831688138312B3
:10028000881783160814831208184C291430A40008
:100290002C203430F800C62983168814831288185D
:1002A00057291430A4002C203530F800C6298316B5
:1002B00008158312081962291430A4002C20363046
:1002C000F800C629831608128312081683168812AE
:1002D0008312881683160813831208138316881353
:1002E0008312881783160814831208187D29143086
:1002F000A4002C203730F800C629831688148312F6
:10030000881888291430A4002C203830F800C62919
:10031000831608158312081993291430A4002C2081
:100320003930F800C629831608128312081683167E
:1003300088128312881683160813831208178316EF
:100340008813831288138316081483120818AE29A1
:100350001430A4002C202A30F800C62983168814F3
:1003600083128818B9291430A4002C203030F800EA
:10037000C6298316081583120819C4291430A4004D
:100380002C202330F800C6290030F8008A110A1208
:10039000E229840183131F30830583161F149F14E1
:1003A0001F159F11831287281430A4002C20A2014E
:1003B00022080C2000380319E129A20AA300D62044
:1003C000D829FE287808A1000130A4000230A50039
:1003D000B320A20122082120A20AF700A300D62000
:1003E00004302202031DEA292108A300D6200A3086
:0803F000A4002C20E1296300A8
:02400E00713F00
:00000001FF
;PIC16F877
